:100000000C9462000C948A000C948A000C948A0070
:100010000C948A000C948A000C948A000C948A0038
:100020000C948A000C948A000C948A000C948A0028
:100030000C948A000C948A000C948A000C948A0018
:100040000C943B030C948A000C9409030C94E30277
:100050000C948A000C948A000C948A000C948A00F8
:100060000C948A000C948A000000000023002600F3
:10007000290000000008000201000003040700003E
:1000800000000000000000000000250028002B00F8
:1000900000000000240027002A00040404040404D3
:1000A0000404020202020202030303030303010227
:1000B00004081020408001020408102001020408F6
:1000C0001020850311241FBECFEFD8E0DEBFCDBFC7
:1000D00011E0A0E0B1E0EAE4FCE002C005900D927E
:1000E000A834B107D9F722E0A8E4B1E001C01D921D
:1000F000AA32B207E1F710E0C2E6D0E004C02197CF
:10010000FE010E941806C136D107C9F70E944804B3
:100110000C9423060C940000CF92DF92EF92FF9292
:100120000F931F93CF93DF936C017A018B01C0E093
:10013000D0E0CE15DF0581F0D8016D918D01D6019B
:10014000ED91FC910190F081E02DC6010995892B7C
:1001500011F02196EECF7E01C701DF91CF911F9163
:100160000F91FF90EF90DF90CF900895089580E079
:1001700090E00895FC01538D448D252F30E0842FAD
:1001800090E0821B930B541710F0CF9608950197BF
:100190000895FC01918D828D981761F0828DDF01A9
:1001A000A80FB11D5D968C91928D9F5F9F73928F6A
:1001B00090E008958FEF9FEF0895FC01918D828D5F
:1001C000981731F0828DE80FF11D858D90E008952C
:1001D0008FEF9FEF0895FC01918D228D892F90E084
:1001E000805C9F4F821B91098F739927089581E549
:1001F00091E00E94EB0021E0892B09F420E0822F9E
:100200000895FC01848DDF01A80FB11DA35ABF4FD3
:100210002C91848D90E001968F739927848FA68905
:10022000B7892C93A089B1898C91837080648C9359
:10023000938D848D981306C00288F389E02D808108
:100240008F7D80830895EF92FF920F931F93CF933A
:10025000DF93EC0181E0888F9B8D8C8D981305C016
:10026000E889F989808185FD26C0F62E0B8D10E086
:100270000F5F1F4F0F731127E02E8C8DE8120CC0FB
:100280000FB607FCFACFE889F989808185FFF5CFA1
:10029000CE010E940101F1CF8B8DFE01E80FF11D0F
:1002A000E35AFF4FF0829FB7F8940B8FEA89FB89DE
:1002B000808180620AC09FB7F894EE89FF896083CD
:1002C000E889F98980818370806480839FBF81E0A1
:1002D00090E0DF91CF911F910F91FF90EF900895E3
:1002E000CF93DF93EC01888D8823C9F0EA89FB89DD
:1002F000808185FD05C0A889B9898C9186FD0FC0D4
:100300000FB607FCF5CF808185FFF2CFA889B989A8
:100310008C9185FFEDCFCE010E940101E7CFDF91E7
:10032000CF91089580E090E0892B29F00E94F7009A
:1003300081110C9400000895833081F028F48130FD
:1003400099F08230A1F008958730A9F08830B9F093
:100350008430D1F4809180008F7D03C08091800033
:100360008F7780938000089584B58F7702C084B51D
:100370008F7D84BD08958091B0008F7703C08091F8
:10038000B0008F7D8093B0000895CF93DF93282F26
:1003900030E0F901EE58FF4F8491F901E255FF4F2B
:1003A000D491F901E656FF4FC491CC2391F081110D
:1003B0000E949C01EC2FF0E0EE0FFF1FE859FF4F69
:1003C000A591B491EC91ED2381E090E021F480E0DF
:1003D00002C080E090E0DF91CF9108951F93CF930A
:1003E000DF93282F30E0F901EE58FF4F8491F90197
:1003F000E255FF4FD491F901E656FF4FC491CC234B
:10040000C1F0162F81110E949C01EC2FF0E0EE0F3D
:10041000FF1FEA57FF4FA591B4919FB7F8941111B0
:1004200004C08C91D095D82302C0EC91DE2BDC93D4
:100430009FBFDF91CF911F9108953FB7F8948091AE
:100440004D0190914E01A0914F01B091500126B500
:10045000A89B05C02F3F19F00196A11DB11D3FBFFC
:10046000BA2FA92F982F8827820F911DA11DB11D8A
:10047000BC01CD0142E0660F771F881F991F4A9586
:10048000D1F70895009769F0FC0101900020E9F789
:100490003197AF01481B590BBC0181E591E00C94E9
:1004A0008C0080E090E008958F929F92AF92BF926F
:1004B0000F931F93CF93DF93CDB7DEB7A1970FB6FE
:1004C000F894DEBF0FBECDBF19A2423008F44AE057
:1004D0008E010F5D1F4F842E912CA12CB12CA501F4
:1004E00094010E94F605E62FB901CA0101501109D5
:1004F000EA3014F4E05D01C0E95CD801EC93232BF1
:10050000242B252B61F7C8010E944202A1960FB649
:10051000F894DEBF0FBECDBFDF91CF911F910F9139
:10052000BF90AF909F908F900895CF93DF930E94DC
:100530004202EC0182E191E00E9442028C0F9D1F79
:10054000DF91CF910895CF92DF92EF92FF92CF93F8
:10055000DF9397FF1BC06B017C016DE281E591E0A9
:100560000E942301EC0166277727CB016C197D09D6
:100570008E099F094AE00E9454028C0F9D1FDF9153
:10058000CF91FF90EF90DF90CF9008954AE0DF91F8
:10059000CF91FF90EF90DF90CF900C945402CF93C7
:1005A000DF93BC01990F880B990B0E94A302EC0109
:1005B00082E191E00E9442028C0F9D1FDF91CF915A
:1005C00008950E941E061F920F920FB60F921124DB
:1005D0002F933F934F935F936F937F938F939F934B
:1005E000AF93BF93EF93FF9381E591E00E940101E8
:1005F000FF91EF91BF91AF919F918F917F916F91FB
:100600005F914F913F912F910F900FBE0F901F90D0
:1006100018951F920F920FB60F9211242F938F935C
:100620009F93EF93FF93E0916101F09162018081CC
:10063000E0916701F091680182FD12C09081809184
:100640006A018F5F8F7320916B01821751F0E091E7
:100650006A01F0E0EF5AFE4F958F80936A0101C066
:100660008081FF91EF919F918F912F910F900FBEFD
:100670000F901F9018951F920F920FB60F92112492
:100680002F933F938F939F93AF93BF938091490193
:1006900090914A01A0914B01B0914C0130914801D9
:1006A00023E0230F2D3720F40196A11DB11D05C0B5
:1006B00026E8230F0296A11DB11D209348018093C7
:1006C000490190934A01A0934B01B0934C01809152
:1006D0004D0190914E01A0914F01B09150010196B2
:1006E000A11DB11D80934D0190934E01A0934F0128
:1006F000B0935001BF91AF919F918F913F912F91F6
:100700000F900FBE0F901F901895CF93DF93CDB72A
:10071000DEB764970FB6F894DEBF0FBECDBFE1E53C
:10072000F1E01382128288EE93E0A0E0B0E08483CF
:100730009583A683B78384E091E09183808385ECE1
:1007400090E09587848784EC90E09787868780EC9B
:1007500090E0918B808B81EC90E0938B828B82EC8C
:1007600090E0958B848B86EC90E0978B868B118E36
:10077000128E138E148EE6E1F2E082E090E0918317
:100780008083128282E390E09483838323E030E0CD
:100790003683258317829187808724E030E0338772
:1007A000228714869687858725E030E0308B27875F
:1007B000118A938B828B85E0DE01119601900D9258
:1007C0008A95E1F78EEE91E02AE030E0FC0131837A
:1007D00020833483238325E0FE013196A3EFB1E02B
:1007E00001900D922A95E1F725E0EBE1F2E0DE01C0
:1007F000169601900D922A95E1F72BE030E0FC016E
:10080000338722873687258725E0FE013696ADEFB0
:10081000B1E001900D922A95E1F725E0E0E2F2E0E7
:10082000DE011B9601900D922A95E1F72CE030E055
:10083000FC01358B248B308F278B25E0FE013B9606
:10084000A7E0B2E001900D922A95E1F725E0E5E2FC
:10085000F2E0DE01509601900D922A95E1F72DE02D
:1008600030E0FC01378F268F32A321A385E0FE0103
:100870007096A1E1B2E001900D928A95E1F764963D
:100880000FB6F894DEBF0FBECDBFDF91CF910895B4
:10089000789484B5826084BD84B5816084BD85B55B
:1008A000826085BD85B5816085BD80916E00816067
:1008B00080936E001092810080918100826080930D
:1008C000810080918100816080938100809180000F
:1008D0008160809380008091B10084608093B1003A
:1008E0008091B00081608093B00080917A00846034
:1008F00080937A0080917A00826080937A00809160
:100900007A00816080937A0080917A008068809379
:100910007A001092C100E0916101F091620182E0E1
:100920008083E0915D01F0915E011082E0915F01B2
:10093000F09160018FEC808310926901E091650174
:10094000F091660186E08083E0916301F09164019B
:10095000808180618083E0916301F09164018081F6
:1009600088608083E0916301F091640180818068F8
:100970008083E0916301F091640180818F7D8083A9
:1009800085E191E00E949502CEEED1E088819981C7
:100990009927FC01E255FF4F2491FC01E656FF4FD9
:1009A0008491882399F090E0880F991FFC01E0570B
:1009B000FF4FA591B491FC01EA57FF4F85919491A7
:1009C0008FB7F894EC91E22BEC938FBF8B819C81D5
:1009D0000E94E00561E0811101C060E06A838881C6
:1009E0000E94EE016A818B819C810E94E80585E26C
:1009F00091E00E9442026B817C81072E000C880BE3
:100A0000990B0E94A3028EE291E00E9495022A9621
:100A100022E0C631D20709F0B9CFC6E1D2E00AE23E
:100A200012E0888199819927FC01E255FF4F2491BA
:100A3000FC01E656FF4F84918823C9F090E0880FAF
:100A4000991FFC01E057FF4FA591B491FC01EA57B3
:100A5000FF4F459154919FB7F8948C91E22FE09508
:100A60008E238C93DA018C91E823EC939FBF8881CD
:100A70000E94C50121E0892B09F420E02A8386E346
:100A800091E00E94420268817981072E000C880B58
:100A9000990B0E94A3028EE291E00E9495028A8146
:100AA00090E00E94CF0225960C171D0709F0B9CFE0
:100AB00001E0CEEED1E08F8190E00E94CF028F81E5
:100AC00090E00E94CF028F8190E00E94CF028D8142
:100AD0000E94C50111E0892B09F410E07F80612E8E
:100AE0006724C884D9840D2C000CEE08FF080E94EE
:100AF0001D024B015C01C114D104E104F104F1F0C9
:100B00000E941D02DC01CB0188199909AA09BB09C1
:100B1000883E9340A105B10570F3B1E0CB1AD1082E
:100B2000E108F10828EE820E23E0921EA11CB11C00
:100B3000C114D104E104F10419F7DDCF812F90E055
:100B40000E94CF02862D90E00E94CF021F831715CE
:100B500071F185E291E00E944202CB80DC800D2C95
:100B6000000CEE08FF08F7FE0EC06DE281E591E093
:100B70000E94230166277727CB016C197D098E0916
:100B80009F094AE003C04AE0C701B6010E9454022F
:100B90008EE391E00E9495026A8160276A838881D2
:100BA0000E94EE016A818B819C810E94E8052A9651
:100BB00082E0C631D80709F07ECF0E94920179CF3A
:100BC000F999FECF92BD81BDF89A992780B5089515
:100BD000262FF999FECF1FBA92BD81BD20BD0FB659
:100BE000F894FA9AF99A0FBE01960895A1E21A2E86
:100BF000AA1BBB1BFD010DC0AA1FBB1FEE1FFF1FC1
:100C0000A217B307E407F50720F0A21BB30BE40B10
:100C1000F50B661F771F881F991F1A9469F7609557
:100C20007095809590959B01AC01BD01CF01089511
:100C3000EE0FFF1F0590F491E02D099481E090E004
:0A0C4000F8940C942306F894FFCFFB
:100C4A000000000023018C00BA007001EB00C9000B
:100C5A00DD000D0A0053657269616C20776F726B53
:100C6A00696E6721005475726E6F75742000207367
:100C7A006574757021005377697463682000207465
:080C8A006F67676C65642100CF
:107E0000112484B714BE81FFF0D085E080938100F7
:107E100082E08093C00088E18093C10086E0809377
:107E2000C20080E18093C4008EE0C9D0259A86E02C
:107E300020E33CEF91E0309385002093840096BBD3
:107E4000B09BFECF1D9AA8958150A9F7CC24DD24C4
:107E500088248394B5E0AB2EA1E19A2EF3E0BF2EE7
:107E6000A2D0813461F49FD0082FAFD0023811F036
:107E7000013811F484E001C083E08DD089C08234E0
:107E800011F484E103C0853419F485E0A6D080C0E4
:107E9000853579F488D0E82EFF2485D0082F10E0AE
:107EA000102F00270E291F29000F111F8ED06801E7
:107EB0006FC0863521F484E090D080E0DECF843638
:107EC00009F040C070D06FD0082F6DD080E0C81688
:107ED00080E7D80618F4F601B7BEE895C0E0D1E017
:107EE00062D089930C17E1F7F0E0CF16F0E7DF06D8
:107EF00018F0F601B7BEE89568D007B600FCFDCFD4
:107F0000A601A0E0B1E02C9130E011968C91119780
:107F100090E0982F8827822B932B1296FA010C0160
:107F200087BEE89511244E5F5F4FF1E0A038BF0790
:107F300051F7F601A7BEE89507B600FCFDCF97BE46
:107F4000E89526C08437B1F42ED02DD0F82E2BD052
:107F50003CD0F601EF2C8F010F5F1F4F84911BD097
:107F6000EA94F801C1F70894C11CD11CFA94CF0C13
:107F7000D11C0EC0853739F428D08EE10CD085E9AC
:107F80000AD08FE07ACF813511F488E018D01DD067
:107F900080E101D065CF982F8091C00085FFFCCF94
:107FA0009093C60008958091C00087FFFCCF809118
:107FB000C00084FD01C0A8958091C6000895E0E648
:107FC000F0E098E1908380830895EDDF803219F02E
:107FD00088E0F5DFFFCF84E1DECF1F93182FE3DFCA
:107FE0001150E9F7F2DF1F91089580E0E8DFEE27F6
:047FF000FF270994CA
:027FFE00040479
:0400000300007E007B
:00000001FF
